{
  "_format": "hh3-artifact-1",
  "contractName": "Earnings",
  "sourceName": "contracts/Earnings.sol",
  "abi": [
    {
      "inputs": [],
      "stateMutability": "nonpayable",
      "type": "constructor"
    },
    {
      "anonymous": false,
      "inputs": [
        {
          "indexed": true,
          "internalType": "address",
          "name": "user",
          "type": "address"
        },
        {
          "indexed": false,
          "internalType": "string",
          "name": "ipId",
          "type": "string"
        },
        {
          "indexed": false,
          "internalType": "uint256",
          "name": "amount",
          "type": "uint256"
        },
        {
          "indexed": false,
          "internalType": "uint256",
          "name": "timestamp",
          "type": "uint256"
        }
      ],
      "name": "EarningAdded",
      "type": "event"
    },
    {
      "anonymous": false,
      "inputs": [
        {
          "indexed": false,
          "internalType": "uint256",
          "name": "amount",
          "type": "uint256"
        },
        {
          "indexed": false,
          "internalType": "uint256",
          "name": "timestamp",
          "type": "uint256"
        }
      ],
      "name": "ProtocolEarningAdded",
      "type": "event"
    },
    {
      "anonymous": false,
      "inputs": [
        {
          "indexed": true,
          "internalType": "address",
          "name": "to",
          "type": "address"
        },
        {
          "indexed": false,
          "internalType": "uint256",
          "name": "amount",
          "type": "uint256"
        },
        {
          "indexed": false,
          "internalType": "uint256",
          "name": "timestamp",
          "type": "uint256"
        }
      ],
      "name": "ProtocolWithdrawn",
      "type": "event"
    },
    {
      "anonymous": false,
      "inputs": [
        {
          "indexed": true,
          "internalType": "address",
          "name": "user",
          "type": "address"
        },
        {
          "indexed": false,
          "internalType": "uint256",
          "name": "amount",
          "type": "uint256"
        },
        {
          "indexed": false,
          "internalType": "uint256",
          "name": "timestamp",
          "type": "uint256"
        }
      ],
      "name": "Withdrawn",
      "type": "event"
    },
    {
      "inputs": [],
      "name": "addProtocolEarning",
      "outputs": [],
      "stateMutability": "payable",
      "type": "function"
    },
    {
      "inputs": [
        {
          "internalType": "address",
          "name": "user",
          "type": "address"
        },
        {
          "internalType": "string",
          "name": "ipId",
          "type": "string"
        }
      ],
      "name": "addUserEarning",
      "outputs": [],
      "stateMutability": "payable",
      "type": "function"
    },
    {
      "inputs": [
        {
          "internalType": "address",
          "name": "user",
          "type": "address"
        }
      ],
      "name": "getAvailableEarnings",
      "outputs": [
        {
          "internalType": "uint256",
          "name": "",
          "type": "uint256"
        }
      ],
      "stateMutability": "view",
      "type": "function"
    },
    {
      "inputs": [],
      "name": "getAvailableProtocolEarnings",
      "outputs": [
        {
          "internalType": "uint256",
          "name": "",
          "type": "uint256"
        }
      ],
      "stateMutability": "view",
      "type": "function"
    },
    {
      "inputs": [],
      "name": "getContractBalance",
      "outputs": [
        {
          "internalType": "uint256",
          "name": "",
          "type": "uint256"
        }
      ],
      "stateMutability": "view",
      "type": "function"
    },
    {
      "inputs": [],
      "name": "owner",
      "outputs": [
        {
          "internalType": "address",
          "name": "",
          "type": "address"
        }
      ],
      "stateMutability": "view",
      "type": "function"
    },
    {
      "inputs": [],
      "name": "protocolEarnings",
      "outputs": [
        {
          "internalType": "uint256",
          "name": "",
          "type": "uint256"
        }
      ],
      "stateMutability": "view",
      "type": "function"
    },
    {
      "inputs": [],
      "name": "protocolWithdrawn",
      "outputs": [
        {
          "internalType": "uint256",
          "name": "",
          "type": "uint256"
        }
      ],
      "stateMutability": "view",
      "type": "function"
    },
    {
      "inputs": [
        {
          "internalType": "address",
          "name": "_vaultContract",
          "type": "address"
        }
      ],
      "name": "setVaultContract",
      "outputs": [],
      "stateMutability": "nonpayable",
      "type": "function"
    },
    {
      "inputs": [
        {
          "internalType": "address",
          "name": "newOwner",
          "type": "address"
        }
      ],
      "name": "transferOwnership",
      "outputs": [],
      "stateMutability": "nonpayable",
      "type": "function"
    },
    {
      "inputs": [
        {
          "internalType": "address",
          "name": "",
          "type": "address"
        }
      ],
      "name": "userEarnings",
      "outputs": [
        {
          "internalType": "uint256",
          "name": "",
          "type": "uint256"
        }
      ],
      "stateMutability": "view",
      "type": "function"
    },
    {
      "inputs": [
        {
          "internalType": "address",
          "name": "",
          "type": "address"
        }
      ],
      "name": "userWithdrawn",
      "outputs": [
        {
          "internalType": "uint256",
          "name": "",
          "type": "uint256"
        }
      ],
      "stateMutability": "view",
      "type": "function"
    },
    {
      "inputs": [],
      "name": "vaultContract",
      "outputs": [
        {
          "internalType": "address",
          "name": "",
          "type": "address"
        }
      ],
      "stateMutability": "view",
      "type": "function"
    },
    {
      "inputs": [],
      "name": "withdraw",
      "outputs": [],
      "stateMutability": "nonpayable",
      "type": "function"
    },
    {
      "inputs": [
        {
          "internalType": "address payable",
          "name": "to",
          "type": "address"
        }
      ],
      "name": "withdrawProtocol",
      "outputs": [],
      "stateMutability": "nonpayable",
      "type": "function"
    },
    {
      "stateMutability": "payable",
      "type": "receive"
    }
  ],
  "bytecode": "0x6080604052348015600e575f5ffd5b505f80546001600160a01b03191633179055610bdd8061002d5f395ff3fe6080604052600436106100e6575f3560e01c80638da5cb5b11610087578063d607d2c011610057578063d607d2c01461023b578063d8ba60211461024f578063ebbb34f71461027a578063f2fde38b1461028d575f5ffd5b80638da5cb5b146101be57806396f4ada6146101dc578063ac96a37d146101fb578063cc392a9c14610210575f5ffd5b80633ccfd60b116100c25780633ccfd60b1461015657806359055b9b1461016a57806364c03a5e1461018d5780636f9fb98a146101ac575f5ffd5b80621879b9146100f15780630a6613d8146100fb5780632274346b1461011a575f5ffd5b366100ed57005b5f5ffd5b6100f96102ac565b005b348015610106575f5ffd5b506100f9610115366004610a6a565b610391565b348015610125575f5ffd5b50600154610139906001600160a01b031681565b6040516001600160a01b0390911681526020015b60405180910390f35b348015610161575f5ffd5b506100f96105a7565b348015610175575f5ffd5b5061017f60045481565b60405190815260200161014d565b348015610198575f5ffd5b5061017f6101a7366004610a6a565b610756565b3480156101b7575f5ffd5b504761017f565b3480156101c9575f5ffd5b505f54610139906001600160a01b031681565b3480156101e7575f5ffd5b506100f96101f6366004610a6a565b610789565b348015610206575f5ffd5b5061017f60055481565b34801561021b575f5ffd5b5061017f61022a366004610a6a565b60036020525f908152604090205481565b348015610246575f5ffd5b5061017f610869565b34801561025a575f5ffd5b5061017f610269366004610a6a565b60026020525f908152604090205481565b6100f9610288366004610a8c565b61087f565b348015610298575f5ffd5b506100f96102a7366004610a6a565b6109c1565b6001546001600160a01b031633146103005760405162461bcd60e51b8152602060048201526012602482015271139bdd081d985d5b1d0818dbdb9d1c9858dd60721b60448201526064015b60405180910390fd5b5f34116103415760405162461bcd60e51b815260206004820152600f60248201526e105b5bdd5b9d081c995c5d5a5c9959608a1b60448201526064016102f7565b3460045f8282546103529190610b20565b9091555050604080513481524260208201527f69d596f12071f664c2a24844253b23275b33eee218b3f0799f0f28c51e6bb2a4910160405180910390a1565b5f546001600160a01b031633146103ba5760405162461bcd60e51b81526004016102f790610b33565b5f6005546004546103cb9190610b56565b90505f811161041c5760405162461bcd60e51b815260206004820181905260248201527f4e6f2070726f746f636f6c206561726e696e677320746f20776974686472617760448201526064016102f7565b8047101561046c5760405162461bcd60e51b815260206004820152601d60248201527f496e73756666696369656e7420636f6e74726163742062616c616e636500000060448201526064016102f7565b6001600160a01b0382166104b65760405162461bcd60e51b8152602060048201526011602482015270125b9d985b1a59081c9958da5c1a595b9d607a1b60448201526064016102f7565b8060055f8282546104c79190610b20565b90915550506040515f906001600160a01b0384169083908381818185875af1925050503d805f8114610514576040519150601f19603f3d011682016040523d82523d5f602084013e610519565b606091505b505090508061055e5760405162461bcd60e51b815260206004820152601160248201527015da5d1a191c985dd85b0819985a5b1959607a1b60448201526064016102f7565b604080518381524260208201526001600160a01b038516917fe3096ac45189e3f676aae10e2a547be2bdbbed3577f9bfb90f27a8e62a63583291015b60405180910390a2505050565b335f9081526003602090815260408083205460029092528220546105cb9190610b56565b90505f811161061c5760405162461bcd60e51b815260206004820152601760248201527f4e6f206561726e696e677320746f20776974686472617700000000000000000060448201526064016102f7565b8047101561066c5760405162461bcd60e51b815260206004820152601d60248201527f496e73756666696369656e7420636f6e74726163742062616c616e636500000060448201526064016102f7565b335f908152600360205260408120805483929061068a908490610b20565b90915550506040515f90339083908381818185875af1925050503d805f81146106ce576040519150601f19603f3d011682016040523d82523d5f602084013e6106d3565b606091505b50509050806107185760405162461bcd60e51b815260206004820152601160248201527015da5d1a191c985dd85b0819985a5b1959607a1b60448201526064016102f7565b6040805183815242602082015233917f92ccf450a286a957af52509bc1c9939d1a6a481783e142e41e2499f0bb66ebc6910160405180910390a25050565b6001600160a01b0381165f9081526003602090815260408083205460029092528220546107839190610b56565b92915050565b5f546001600160a01b031633146107b25760405162461bcd60e51b81526004016102f790610b33565b6001546001600160a01b0316156107ff5760405162461bcd60e51b815260206004820152601160248201527015985d5b1d08185b1c9958591e481cd95d607a1b60448201526064016102f7565b6001600160a01b0381166108475760405162461bcd60e51b815260206004820152600f60248201526e496e76616c6964206164647265737360881b60448201526064016102f7565b600180546001600160a01b0319166001600160a01b0392909216919091179055565b5f60055460045461087a9190610b56565b905090565b6001546001600160a01b031633146108ce5760405162461bcd60e51b8152602060048201526012602482015271139bdd081d985d5b1d0818dbdb9d1c9858dd60721b60448201526064016102f7565b5f341161090f5760405162461bcd60e51b815260206004820152600f60248201526e105b5bdd5b9d081c995c5d5a5c9959608a1b60448201526064016102f7565b6001600160a01b0383166109545760405162461bcd60e51b815260206004820152600c60248201526b24b73b30b634b2103ab9b2b960a11b60448201526064016102f7565b6001600160a01b0383165f908152600260205260408120805434929061097b908490610b20565b92505081905550826001600160a01b03167f11b458236d9b9950d822472fcfacf5a7e3885d856e6d788397e27f031163e7768383344260405161059a9493929190610b69565b5f546001600160a01b031633146109ea5760405162461bcd60e51b81526004016102f790610b33565b6001600160a01b038116610a325760405162461bcd60e51b815260206004820152600f60248201526e496e76616c6964206164647265737360881b60448201526064016102f7565b5f80546001600160a01b0319166001600160a01b0392909216919091179055565b6001600160a01b0381168114610a67575f5ffd5b50565b5f60208284031215610a7a575f5ffd5b8135610a8581610a53565b9392505050565b5f5f5f60408486031215610a9e575f5ffd5b8335610aa981610a53565b9250602084013567ffffffffffffffff811115610ac4575f5ffd5b8401601f81018613610ad4575f5ffd5b803567ffffffffffffffff811115610aea575f5ffd5b866020828401011115610afb575f5ffd5b939660209190910195509293505050565b634e487b7160e01b5f52601160045260245ffd5b8082018082111561078357610783610b0c565b6020808252600990820152682737ba1037bbb732b960b91b604082015260600190565b8181038181111561078357610783610b0c565b60608152836060820152838560808301375f608085830101525f6080601f19601f87011683010190508360208301528260408301529594505050505056fea264697066735822122080a46aac7612437bd2c70fe18dd2a7acf6bb83b4ab0d1f7ec96f67cf2db683b664736f6c634300081c0033",
  "linkReferences": {},
  "deployedLinkReferences": {},
  "immutableReferences": {},
  "inputSourceName": "project/contracts/Earnings.sol",
  "buildInfoId": "solc-0_8_28-a8ea641d71f1b9270ffd356f2827dacd078fa996"
}