{
  "_format": "hh3-artifact-1",
  "contractName": "Vault",
  "sourceName": "contracts/Vault.sol",
  "abi": [
    {
      "inputs": [],
      "stateMutability": "nonpayable",
      "type": "constructor"
    },
    {
      "anonymous": false,
      "inputs": [
        {
          "indexed": true,
          "internalType": "address",
          "name": "user",
          "type": "address"
        },
        {
          "indexed": false,
          "internalType": "string",
          "name": "ipId",
          "type": "string"
        },
        {
          "indexed": false,
          "internalType": "uint256",
          "name": "amountTokens",
          "type": "uint256"
        },
        {
          "indexed": false,
          "internalType": "uint256",
          "name": "amountPaid",
          "type": "uint256"
        },
        {
          "indexed": false,
          "internalType": "uint256",
          "name": "timestamp",
          "type": "uint256"
        }
      ],
      "name": "Buy",
      "type": "event"
    },
    {
      "anonymous": false,
      "inputs": [
        {
          "indexed": true,
          "internalType": "address",
          "name": "user",
          "type": "address"
        },
        {
          "indexed": false,
          "internalType": "string",
          "name": "ipId",
          "type": "string"
        },
        {
          "indexed": false,
          "internalType": "uint256",
          "name": "amountTokens",
          "type": "uint256"
        },
        {
          "indexed": false,
          "internalType": "uint256",
          "name": "amountReceived",
          "type": "uint256"
        },
        {
          "indexed": false,
          "internalType": "uint256",
          "name": "timestamp",
          "type": "uint256"
        }
      ],
      "name": "Sell",
      "type": "event"
    },
    {
      "inputs": [],
      "name": "FEE_DENOMINATOR",
      "outputs": [
        {
          "internalType": "uint256",
          "name": "",
          "type": "uint256"
        }
      ],
      "stateMutability": "view",
      "type": "function"
    },
    {
      "inputs": [],
      "name": "IP_OWNER_FEE",
      "outputs": [
        {
          "internalType": "uint256",
          "name": "",
          "type": "uint256"
        }
      ],
      "stateMutability": "view",
      "type": "function"
    },
    {
      "inputs": [],
      "name": "PROTOCOL_FEE",
      "outputs": [
        {
          "internalType": "uint256",
          "name": "",
          "type": "uint256"
        }
      ],
      "stateMutability": "view",
      "type": "function"
    },
    {
      "inputs": [
        {
          "internalType": "address",
          "name": "",
          "type": "address"
        },
        {
          "internalType": "string",
          "name": "",
          "type": "string"
        }
      ],
      "name": "balances",
      "outputs": [
        {
          "internalType": "uint256",
          "name": "",
          "type": "uint256"
        }
      ],
      "stateMutability": "view",
      "type": "function"
    },
    {
      "inputs": [
        {
          "internalType": "string",
          "name": "ipId",
          "type": "string"
        },
        {
          "internalType": "uint256",
          "name": "amountTokens",
          "type": "uint256"
        }
      ],
      "name": "buy",
      "outputs": [],
      "stateMutability": "payable",
      "type": "function"
    },
    {
      "inputs": [],
      "name": "earningsContract",
      "outputs": [
        {
          "internalType": "address",
          "name": "",
          "type": "address"
        }
      ],
      "stateMutability": "view",
      "type": "function"
    },
    {
      "inputs": [
        {
          "internalType": "address payable",
          "name": "to",
          "type": "address"
        },
        {
          "internalType": "uint256",
          "name": "amount",
          "type": "uint256"
        }
      ],
      "name": "emergencyWithdraw",
      "outputs": [],
      "stateMutability": "nonpayable",
      "type": "function"
    },
    {
      "inputs": [
        {
          "internalType": "address",
          "name": "user",
          "type": "address"
        },
        {
          "internalType": "string",
          "name": "ipId",
          "type": "string"
        }
      ],
      "name": "getBalance",
      "outputs": [
        {
          "internalType": "uint256",
          "name": "",
          "type": "uint256"
        }
      ],
      "stateMutability": "view",
      "type": "function"
    },
    {
      "inputs": [
        {
          "internalType": "string",
          "name": "ipId",
          "type": "string"
        }
      ],
      "name": "getIPOwner",
      "outputs": [
        {
          "internalType": "address",
          "name": "",
          "type": "address"
        }
      ],
      "stateMutability": "view",
      "type": "function"
    },
    {
      "inputs": [
        {
          "internalType": "string",
          "name": "ipId",
          "type": "string"
        }
      ],
      "name": "getTotalSupply",
      "outputs": [
        {
          "internalType": "uint256",
          "name": "",
          "type": "uint256"
        }
      ],
      "stateMutability": "view",
      "type": "function"
    },
    {
      "inputs": [],
      "name": "getVaultBalance",
      "outputs": [
        {
          "internalType": "uint256",
          "name": "",
          "type": "uint256"
        }
      ],
      "stateMutability": "view",
      "type": "function"
    },
    {
      "inputs": [
        {
          "internalType": "string",
          "name": "",
          "type": "string"
        }
      ],
      "name": "ipOwners",
      "outputs": [
        {
          "internalType": "address",
          "name": "",
          "type": "address"
        }
      ],
      "stateMutability": "view",
      "type": "function"
    },
    {
      "inputs": [],
      "name": "owner",
      "outputs": [
        {
          "internalType": "address",
          "name": "",
          "type": "address"
        }
      ],
      "stateMutability": "view",
      "type": "function"
    },
    {
      "inputs": [
        {
          "internalType": "string",
          "name": "ipId",
          "type": "string"
        },
        {
          "internalType": "address",
          "name": "ipOwner",
          "type": "address"
        }
      ],
      "name": "registerIPOwner",
      "outputs": [],
      "stateMutability": "nonpayable",
      "type": "function"
    },
    {
      "inputs": [
        {
          "internalType": "string",
          "name": "ipId",
          "type": "string"
        },
        {
          "internalType": "uint256",
          "name": "amountTokens",
          "type": "uint256"
        },
        {
          "internalType": "uint256",
          "name": "expectedRefund",
          "type": "uint256"
        }
      ],
      "name": "sell",
      "outputs": [],
      "stateMutability": "nonpayable",
      "type": "function"
    },
    {
      "inputs": [
        {
          "internalType": "address",
          "name": "_earningsContract",
          "type": "address"
        }
      ],
      "name": "setEarningsContract",
      "outputs": [],
      "stateMutability": "nonpayable",
      "type": "function"
    },
    {
      "inputs": [
        {
          "internalType": "string",
          "name": "",
          "type": "string"
        }
      ],
      "name": "totalSupply",
      "outputs": [
        {
          "internalType": "uint256",
          "name": "",
          "type": "uint256"
        }
      ],
      "stateMutability": "view",
      "type": "function"
    },
    {
      "inputs": [
        {
          "internalType": "address",
          "name": "newOwner",
          "type": "address"
        }
      ],
      "name": "transferOwnership",
      "outputs": [],
      "stateMutability": "nonpayable",
      "type": "function"
    },
    {
      "stateMutability": "payable",
      "type": "receive"
    }
  ],
  "bytecode": "0x6080604052348015600e575f5ffd5b505f80546001600160a01b031916331790556114558061002d5f395ff3fe608060405260043610610108575f3560e01c80638da5cb5b11610092578063c415db1311610062578063c415db13146102f9578063d73792a914610330578063d917166d14610345578063ed12e8ef14610364578063f2fde38b14610376575f5ffd5b80638da5cb5b1461024557806395ccea671461027b5780639bc650931461029a578063a30c058f146102da575f5ffd5b80631dd7cecf116100d85780631dd7cecf146101b55780635463109e146101d45780637322a9dd146101f35780637a149ab414610207578063842feafa14610226575f5ffd5b806304804ee81461011357806305d01f50146101345780630b4501fd1461018e5780630ca5c504146101a2575f5ffd5b3661010f57005b5f5ffd5b34801561011e575f5ffd5b5061013261012d366004610fcf565b610395565b005b34801561013f575f5ffd5b5061017b61014e3660046110d2565b600260209081525f9283526040909220815180830184018051928152908401929093019190912091525481565b6040519081526020015b60405180910390f35b348015610199575f5ffd5b5061017b603281565b6101326101b036600461111f565b610800565b3480156101c0575f5ffd5b5061017b6101cf366004611167565b610b3c565b3480156101df575f5ffd5b5061017b6101ee3660046111b8565b610b7b565b3480156101fe575f5ffd5b5061017b606481565b348015610212575f5ffd5b506101326102213660046111f7565b610ba6565b348015610231575f5ffd5b50610132610240366004611219565b610c92565b348015610250575f5ffd5b505f54610263906001600160a01b031681565b6040516001600160a01b039091168152602001610185565b348015610286575f5ffd5b5061013261029536600461126c565b610dbe565b3480156102a5575f5ffd5b506102636102b4366004611296565b80516020818301810180516004825292820191909301209152546001600160a01b031681565b3480156102e5575f5ffd5b506102636102f43660046111b8565b610ec4565b348015610304575f5ffd5b5061017b610313366004611296565b805160208183018101805160038252928201919093012091525481565b34801561033b575f5ffd5b5061017b61271081565b348015610350575f5ffd5b50600154610263906001600160a01b031681565b34801561036f575f5ffd5b504761017b565b348015610381575f5ffd5b506101326103903660046111f7565b610ef8565b5f82116103e95760405162461bcd60e51b815260206004820152601d60248201527f416d6f756e74206d7573742062652067726561746572207468616e203000000060448201526064015b60405180910390fd5b826104065760405162461bcd60e51b81526004016103e0906112d0565b335f9081526002602052604090819020905183919061042890879087906112f8565b908152602001604051809103902054101561047c5760405162461bcd60e51b8152602060048201526014602482015273496e73756666696369656e742062616c616e636560601b60448201526064016103e0565b5f6001600160a01b0316600485856040516104989291906112f8565b908152604051908190036020019020546001600160a01b0316036104f25760405162461bcd60e51b81526020600482015260116024820152701254081b9bdd081c9959da5cdd195c9959607a1b60448201526064016103e0565b5f61271061050160648461131b565b61050b9190611332565b90505f61271061051c60328561131b565b6105269190611332565b90505f816105348486611351565b61053e9190611351565b9050834710156105905760405162461bcd60e51b815260206004820152601a60248201527f496e73756666696369656e74207661756c742062616c616e636500000000000060448201526064016103e0565b335f908152600260205260409081902090518691906105b2908a908a906112f8565b90815260200160405180910390205f8282546105ce9190611351565b9250508190555084600388886040516105e89291906112f8565b90815260200160405180910390205f8282546106049190611351565b90915550506001546001600160a01b03161580159061062b57505f83118061062b57505f82115b15610728576001546001600160a01b031683156106d057806001600160a01b031663ebbb34f78560048b8b6040516106649291906112f8565b908152604051908190036020018120546001600160e01b031960e085901b1682526106a1916001600160a01b03909116908d908d9060040161138c565b5f604051808303818588803b1580156106b8575f5ffd5b505af11580156106ca573d5f5f3e3d5ffd5b50505050505b821561072657806001600160a01b0316621879b9846040518263ffffffff1660e01b81526004015f604051808303818588803b15801561070e575f5ffd5b505af1158015610720573d5f5f3e3d5ffd5b50505050505b505b6040515f90339083908381818185875af1925050503d805f8114610767576040519150601f19603f3d011682016040523d82523d5f602084013e61076c565b606091505b50509050806107ad5760405162461bcd60e51b815260206004820152600d60248201526c1499599d5b990819985a5b1959609a1b60448201526064016103e0565b336001600160a01b03167f67e871acb5dc09d9de034f542309d99396c5341c75d892d68c5eb0ce5125614b89898986426040516107ee9594939291906113b9565b60405180910390a25050505050505050565b5f34116108425760405162461bcd60e51b815260206004820152601060248201526f14185e5b595b9d081c995c5d5a5c995960821b60448201526064016103e0565b5f81116108915760405162461bcd60e51b815260206004820152601d60248201527f416d6f756e74206d7573742062652067726561746572207468616e203000000060448201526064016103e0565b816108ae5760405162461bcd60e51b81526004016103e0906112d0565b5f6001600160a01b0316600484846040516108ca9291906112f8565b908152604051908190036020019020546001600160a01b0316036109245760405162461bcd60e51b81526020600482015260116024820152701254081b9bdd081c9959da5cdd195c9959607a1b60448201526064016103e0565b5f61271061093360643461131b565b61093d9190611332565b90505f61271061094e60323461131b565b6109589190611332565b6001549091506001600160a01b03161580159061097d57505f82118061097d57505f81115b15610a7a576001546001600160a01b03168215610a2257806001600160a01b031663ebbb34f784600489896040516109b69291906112f8565b908152604051908190036020018120546001600160e01b031960e085901b1682526109f3916001600160a01b03909116908b908b9060040161138c565b5f604051808303818588803b158015610a0a575f5ffd5b505af1158015610a1c573d5f5f3e3d5ffd5b50505050505b8115610a7857806001600160a01b0316621879b9836040518263ffffffff1660e01b81526004015f604051808303818588803b158015610a60575f5ffd5b505af1158015610a72573d5f5f3e3d5ffd5b50505050505b505b335f90815260026020526040908190209051849190610a9c90889088906112f8565b90815260200160405180910390205f828254610ab891906113e9565b925050819055508260038686604051610ad29291906112f8565b90815260200160405180910390205f828254610aee91906113e9565b909155505060405133907fc6ce3b8bfe0c423a9a7ee84b39bbd0d2c036403d1edd96c793b2b424d078220190610b2d90889088908890349042906113b9565b60405180910390a25050505050565b6001600160a01b0383165f908152600260205260408082209051610b6390859085906112f8565b90815260200160405180910390205490509392505050565b5f60038383604051610b8e9291906112f8565b90815260200160405180910390205490505b92915050565b5f546001600160a01b03163314610bcf5760405162461bcd60e51b81526004016103e0906113fc565b6001546001600160a01b031615610c285760405162461bcd60e51b815260206004820152601d60248201527f4561726e696e677320636f6e747261637420616c72656164792073657400000060448201526064016103e0565b6001600160a01b038116610c705760405162461bcd60e51b815260206004820152600f60248201526e496e76616c6964206164647265737360881b60448201526064016103e0565b600180546001600160a01b0319166001600160a01b0392909216919091179055565b81610caf5760405162461bcd60e51b81526004016103e0906112d0565b6001600160a01b038116610cfd5760405162461bcd60e51b8152602060048201526015602482015274496e76616c6964206f776e6572206164647265737360581b60448201526064016103e0565b5f6001600160a01b031660048484604051610d199291906112f8565b908152604051908190036020019020546001600160a01b031614610d775760405162461bcd60e51b8152602060048201526015602482015274125408185b1c9958591e481c9959da5cdd195c9959605a1b60448201526064016103e0565b8060048484604051610d8a9291906112f8565b90815260405190819003602001902080546001600160a01b03929092166001600160a01b0319909216919091179055505050565b5f546001600160a01b03163314610de75760405162461bcd60e51b81526004016103e0906113fc565b80471015610e2e5760405162461bcd60e51b8152602060048201526014602482015273496e73756666696369656e742062616c616e636560601b60448201526064016103e0565b5f826001600160a01b0316826040515f6040518083038185875af1925050503d805f8114610e77576040519150601f19603f3d011682016040523d82523d5f602084013e610e7c565b606091505b5050905080610ebf5760405162461bcd60e51b815260206004820152600f60248201526e151c985b9cd9995c8819985a5b1959608a1b60448201526064016103e0565b505050565b5f60048383604051610ed79291906112f8565b908152604051908190036020019020546001600160a01b0316905092915050565b5f546001600160a01b03163314610f215760405162461bcd60e51b81526004016103e0906113fc565b6001600160a01b038116610f695760405162461bcd60e51b815260206004820152600f60248201526e496e76616c6964206164647265737360881b60448201526064016103e0565b5f80546001600160a01b0319166001600160a01b0392909216919091179055565b5f5f83601f840112610f9a575f5ffd5b50813567ffffffffffffffff811115610fb1575f5ffd5b602083019150836020828501011115610fc8575f5ffd5b9250929050565b5f5f5f5f60608587031215610fe2575f5ffd5b843567ffffffffffffffff811115610ff8575f5ffd5b61100487828801610f8a565b90989097506020870135966040013595509350505050565b6001600160a01b0381168114611030575f5ffd5b50565b634e487b7160e01b5f52604160045260245ffd5b5f82601f830112611056575f5ffd5b813567ffffffffffffffff81111561107057611070611033565b604051601f8201601f19908116603f0116810167ffffffffffffffff8111828210171561109f5761109f611033565b6040528181528382016020018510156110b6575f5ffd5b816020850160208301375f918101602001919091529392505050565b5f5f604083850312156110e3575f5ffd5b82356110ee8161101c565b9150602083013567ffffffffffffffff811115611109575f5ffd5b61111585828601611047565b9150509250929050565b5f5f5f60408486031215611131575f5ffd5b833567ffffffffffffffff811115611147575f5ffd5b61115386828701610f8a565b909790965060209590950135949350505050565b5f5f5f60408486031215611179575f5ffd5b83356111848161101c565b9250602084013567ffffffffffffffff81111561119f575f5ffd5b6111ab86828701610f8a565b9497909650939450505050565b5f5f602083850312156111c9575f5ffd5b823567ffffffffffffffff8111156111df575f5ffd5b6111eb85828601610f8a565b90969095509350505050565b5f60208284031215611207575f5ffd5b81356112128161101c565b9392505050565b5f5f5f6040848603121561122b575f5ffd5b833567ffffffffffffffff811115611241575f5ffd5b61124d86828701610f8a565b90945092505060208401356112618161101c565b809150509250925092565b5f5f6040838503121561127d575f5ffd5b82356112888161101c565b946020939093013593505050565b5f602082840312156112a6575f5ffd5b813567ffffffffffffffff8111156112bc575f5ffd5b6112c884828501611047565b949350505050565b6020808252600e908201526d1254081251081c995c5d5a5c995960921b604082015260600190565b818382375f9101908152919050565b634e487b7160e01b5f52601160045260245ffd5b8082028115828204841417610ba057610ba0611307565b5f8261134c57634e487b7160e01b5f52601260045260245ffd5b500490565b81810381811115610ba057610ba0611307565b81835281816020850137505f828201602090810191909152601f909101601f19169091010190565b6001600160a01b03841681526040602082018190525f906113b09083018486611364565b95945050505050565b608081525f6113cc608083018789611364565b602083019590955250604081019290925260609091015292915050565b80820180821115610ba057610ba0611307565b6020808252600990820152682737ba1037bbb732b960b91b60408201526060019056fea2646970667358221220e3ea6677603ac3e4714504fbcc310abb5869adf229fad0cdc62f289ff7798a9d64736f6c634300081c0033",
  "linkReferences": {},
  "deployedLinkReferences": {},
  "immutableReferences": {},
  "inputSourceName": "project/contracts/Vault.sol",
  "buildInfoId": "solc-0_8_28-2ccf7fbcd6ee396faccfb8445464e3fab488edd3"
}